:020000040800F2
:10000000C809002089020008CF710008974600083F
:10001000CD710008A5080008C5790008000000009F
:1000200000000000000000000000000085730008D0
:10003000A708000800000000D17100081D74000826
:10004000A3020008A3020008A302000879730008B5
:10005000A3020008A3020008A3020008A3020008EC
:10006000A3020008A3020008A3020008A3020008DC
:10007000A3020008A3020008A3020008A3020008CC
:10008000A3020008A3020008A3020008A3020008BC
:10009000A3020008A3020008A3020008A3020008AC
:1000A000A3020008A3020008A3020008A30200089C
:1000B000A3020008A302000875740008A302000848
:1000C000A3020008A3020008A3020008A30200087C
:1000D000A302000899790008A3020008A3020008FF
:1000E000A3020008D5710008A3020008A3020008BB
:1000F000A3020008A3020008A3020008A30200084C
:10010000A3020008A3020008A3020008A30200083B
:10011000A3020008A3020008A3020008A30200082B
:10012000A3020008A3020008A3020008A30200081B
:10013000A3020008A3020008A3020008A30200080B
:10014000A3020008A3020008A3020008A3020008FB
:10015000A3020008A3020008A3020008A3020008EB
:10016000A3020008A3020008A3020008A3020008DB
:10017000A3020008A3020008A30200080000000078
:10018000A3020008A302000800F002F800F06DF8D6
:100190000AA090E8000C82448344AAF10107DA45E2
:1001A00001D100F062F8AFF2090EBAE80F0013F0C7
:1001B000010F18BFFB1A43F001031847A4D7000032
:1001C000C4D700000A444FF0000C10F8013B13F0B4
:1001D000070408BF10F8014B1D1108BF10F8015BA0
:1001E000641E05D010F8016B641E01F8016BF9D193
:1001F00013F0080F1EBF10F8014BAD1C0C1B09D1EA
:100200006D1E58BF01F801CBFAD505E014F8016B5B
:1002100001F8016B6D1EF9D59142D6D370470000ED
:100220000023002400250026103A28BF78C1FBD8FF
:10023000520728BF30C148BF0B607047642900F0E7
:100240002B81752900F02881782900F061816329CC
:1002500000F0D382732900F0D882002070471FB5C8
:1002600008F006FF1FBD10B510BD00F0E9FA1146F9
:10027000FFF7F5FF07F0D8FC00F007FB03B4FFF72A
:10028000F2FF03BC07F092FC094880470948004789
:10029000FEE7FEE7FEE7FEE7FEE7FEE7FEE7FEE736
:1002A000FEE7FEE704480549054A064B7047000093
:1002B0002174000889010008C8030020C809002033
:1002C000C8050020C8050020704753EA020C00F062
:1002D00069802DE9F04B4FF00006002B1FBFB3FAE9
:1002E00083F503FA05F424FA05F65E4012BF1643BF
:1002F000B2FA82F502FA05F4C5F120051EBF22FA12
:1003000005FC44EA0C04203556EA044C4FEA144438
:1003100018BF641C4FF000084FF00009904271EBC9
:10032000030C39D3002919BFB1FA81F701FA07F696
:10033000B0FA80F700FA07F6C7F120071EBF20FACF
:1003400007FC46EA0C062037B6FBF4FCA7EB0507D2
:10035000103F07F01F0BCBF120060CFA0BFB2CFA19
:1003600006F644BFB3460026202FA4BF5E464FF0DA
:10037000000B5BEA060C08BF4FF0010B19EB0B09F1
:10038000ABFB027C48EB0608C01B06FB02CC0BFB58
:1003900003CC71EB0C01C1E70B46024641464846CF
:1003A000BDE8F08B13B54FF000004FF00001AFF344
:1003B0000080BDE81C4070470FB4044910B503AA83
:1003C000029800F027FA10BC5DF814FB180000201A
:1003D0000FB41CB5074B06AA7B44694600900598EC
:1003E00000F0E9F90020694600F0F8F91CBC5DF85E
:1003F00014FB00000104000070B504468569006824
:10040000C10601D5302600E02026C00707D070BD08
:10041000D4E9012130469047206A401C20626D1EBD
:10042000F6D570BD70B5044685690078C00707D160
:1004300070BDD4E9012120209047206A401C206231
:100440006D1EF6D570BD70B50C460546012A05D067
:100450002878800600D5EA69002302E0012305E040
:100460005B1C934202D2E05C0028F9D1A869E6182F
:10047000C01AA861286A184428622846FFF7BCFF02
:1004800004E0D5E9012114F8010B9047B442F8D3F8
:100490002846FFF7C7FF70BD2DE9F041064600244E
:1004A00010687529314616A510D0AFF300800028DA
:1004B00002DA404213A507E031688A0701D512A588
:1004C00002E0490704D511A5012401E0AFF3008043
:1004D00000210A2206F1240709E0B0FBF2FCB0FB80
:1004E000F2F302FB1C00303078541846491C0028F7
:1004F000F3D123462A463046BDE8F04100F0FCB86F
:10050000000000002D0000002B0000002000000073
:1005100070B504460D4621461068AFF3008021886F
:10052000090502D50F4A7A4402E00E4A7A440E3297
:10053000002104F1240305E000F00F060009965D98
:100540005E54491C0028F7D120780023000704D509
:10055000702D02D009B1022311322046BDE870404F
:1005600000F0CAB8A8D200002DE9F05F8946044621
:100570004FF0000ADFF874B1FB44C0F820A0204619
:10058000E1688847002874D0252806D0D4E90121E5
:100590009047206A401C2062F1E700265F46204613
:1005A000E16888472028054607DB312D05D27819F8
:1005B00010F8200C08B10643F1E7B00701D526F08A
:1005C0000406C4F81CA00027C4F818A02A2D09D0DE
:1005D000284607F008FA38B304EB8708303DC8F81E
:1005E000185019E059F8041B204604EB870291616A
:1005F000E1688847012F054618D1E069002820DA14
:1006000026F020061DE0D8F8180000EB800005EB6E
:1006100040003038C8F818002046E1688847054691
:1006200007F0E1F90028EED1012F0AD02E2D08D1D4
:100630002046E16888477F1C0546022F46F02006C9
:10064000C4DBA069002803DA404246F00106A0613D
:10065000F00701D026F010066C2D0BD0682D09D0C4
:100660004C2D39D06A2D35D0742D35D07A2D33D01C
:1006700016E038E0E1682F4620468847B842054634
:1006800009D16C2F26D04FF48060E16806432046E4
:100690008847054604E06C2F1AD04FF4807006435B
:1006A0000DB3A5F14100192802D8203546F40066A3
:1006B0004A462946204626604E46FFF7BFFD80B1D8
:1006C00001280BD0F61D26F0070000F1080956E7B7
:1006D0004020E4E78020D8E70020D6E706F10409AF
:1006E0004DE7284652E7206ABDE8F09F7ED2000021
:1006F00070477047704770472DE9F0470D4699469F
:100700009246044600F124080168880604D5E06991
:1007100021F01001216000E00120A84201DD471B0B
:1007200000E00027A1697A1902EB0900081AA0610C
:100730002078C00602D42046FFF75EFE002608E0BF
:10074000D4E901211AF806009047206A401C761C63
:1007500020624E45F4DB2078C0060AD52046FFF71C
:100760004BFE06E0D4E9012130209047206A401C6E
:100770002062381EA7F10107F4DC07E0D4E901216B
:1007800018F805009047206A401C2062281EA5F139
:100790000105F3DC2046FFF745FE2078000602D570
:1007A0000220BDE8F0870120FBE7000001694A1C38
:1007B00002610878704700B58FB0CDE901310021A2
:1007C000059105497944CDE9031011466846FFF7C4
:1007D000CBFE0FB000BD0000E5FFFFFF0A6802F886
:1007E000010B0A60704710B5436913B1AFF3008085
:1007F00001E0FFF728FE012010BD127800F124016E
:100800000A7000224A700122EDE711684FF0FF32B2
:10081000E9E70000074B70B50D467B44FFF7CBFFBF
:100820000446284600F008F810B14FF0FF3070BDC4
:10083000204670BDF7730000007B00F08000704719
:10084000754600F02BF8AE4605006946534620F089
:100850000700854618B020B5FFF724FDBDE820400D
:100860004FF000064FF000074FF000084FF0000B6C
:1008700021F00701AC46ACE8C009ACE8C009ACE81F
:10088000C009ACE8C0098D46704710B50446AFF307
:1008900000802046BDE81040FFF7F0BC00487047DC
:1008A00068030020FEE770471FB592B00020089053
:1008B0001A9800F0040010B119980F9012E01998DE
:1008C000C117079000EB117001110798A0EB011000
:1008D000FE49085C0F9019980F2803DD0F9840F02F
:1008E00080000F90DDE91401A1EB400080B211906F
:1008F000149800EB40011898401A079000EBD07054
:10090000C0F34F0010901A9800F0200078B1F04822
:10091000007A60B1EE48017A149890FBF1F0EC494E
:10092000C8800846C088012801DA0120C88000205C
:100930000E9002F0F5BB1A9800F08000002801F03C
:10094000E784DDE90E10084100F0010000287DD0A9
:100950000E9800287BD10D9031E014991298014433
:100960000D98081ADA49C988084480B20C90109989
:10097000149801440022139802FB01010D980844C9
:1009800080B209900B901499129801441198014477
:100990000D980844CE49C988401A80B20A90CC48C4
:1009A00000880090CA4840690790079CDDE9093239
:1009B000DDE90B10A0470D98401CC0B20D901498B3
:1009C000079000EBD070012101EB60010D9881428E
:1009D000C3DC00200D9033E01499129801440D9867
:1009E000081ABB49C988084480B20C901099149821
:1009F00001440022139802FB0101149801440D9850
:100A0000081A80B209900B90149912980144119819
:100A100001440D980844AE49C988401A80B20A9032
:100A2000AB4800880090AA4840690790079CDDE920
:100A30000932DDE90B10A0470D98401CC0B20D90A3
:100A40001498079000EBD070012101E0BFE306E0AD
:100A500001EB60010D988142BEDC02F05DBB0E9897
:100A600001287DD100200D9039E01499129801449D
:100A7000119801440D98084480B20C90DDE91301EF
:100A8000084401460D98081A9149C988084480B263
:100A90000B90149912980144119801440D98084440
:100AA00080B20A90DDE91301014410980844014620
:100AB0000D9808448649C988401A80B20990844834
:100AC00000880090824840690790079CDDE9093260
:100AD000DDE90B10A0470D98401CC0B20D90149892
:100AE000079000EBD070012101EB60010D9881426D
:100AF000BBDC00200D903DE01299149801EB400101
:100B0000119801440D98081A80B20C90DDE9130188
:100B1000084401460D98081A6D49C988084480B2F6
:100B20000B901299149801EB4001119801440D9813
:100B3000081A80B20A90DDE91301014410980844B4
:100B400001460D9808446249C988401A80B209904C
:100B50005F48008800905E4840690790079C00E06D
:100B600013E0DDE90932DDE90B10A0470D98401CC8
:100B7000C0B20D901498079000EBD070012101EBEA
:100B800060010D988142B7DC67E70E9802287DD19D
:100B900000200D903FE014991298014411980144EF
:100BA0000D98084480B20C90DDE913014218084604
:100BB0001099084411180D98081A4549C988084425
:100BC00080B20B90149912980144119801440D9829
:100BD000084480B20A90DDE91301014410980A1814
:100BE00010991498084411180D9808443849C98878
:100BF000401A80B209903648008800903448406915
:100C00000790079CDDE90932DDE90B10A0470D983C
:100C1000401CC0B20D901498079000EBD0700121D9
:100C200001EB60010D988142B5DC00200D9043E09E
:100C30001299149801EB4001119801440D98081A7B
:100C400080B20C90DDE9130142180846109908445F
:100C500011180D98081A1E49C988084480B20B90D3
:100C60001299149801EB4001119801440D98081A4B
:100C700080B20A90DDE91301014410980A18109916
:100C80001498084411180D98084400E024E0104915
:100C9000C988401A80B209900D48008800900C481D
:100CA00040690790079CDDE90932DDE90B10A04798
:100CB0000D98401CC0B20D901498079000EBD070B6
:100CC000012101EB60010D98814203E08E010020BB
:100CD00074010020ACDCC0E60E9803287ED1002011
:100CE0000D903AE01499129801440D98081AFC49A5
:100CF000C988084480B20C901099149801440222CB
:100D0000139802FB01010D98084480B20B901499CE
:100D100012980144119801440D980844F049C9887B
:100D2000401A80B20A90109914980144139802FB5B
:100D300001010D98084480B20990E94800880090AC
:100D4000E74840690790079CDDE90932DDE90B10AF
:100D5000A0470D98401CC0B20D901498079000EB6E
:100D6000D070012101EB60010D988142BADC0020B6
:100D70000D9040E01499129801440D98081AD84932
:100D8000C988084480B20C9010991498014402223A
:100D9000139802FB0101149801440D98081A80B2BF
:100DA0000B90149912980144119801440D9808442D
:100DB000CB49C988401A80B20A901099149801440E
:100DC000139802FB0101149801440D98081A80B28F
:100DD0000990C34800880090C14800E016E04069CF
:100DE0000790079CDDE90932DDE90B10A0470D985B
:100DF000401CC0B20D901498079000EBD0700121F8
:100E000001EB60010D988142B4DC26E60E980428BF
:100E10007DD100200D9037E00D991298084480B2E2
:100E20000C90DDE913014218084610990844111886
:100E30000D98081AAA49C988084480B20B900D99E8
:100E40001298084480B20A90DDE913010144109819
:100E50000A1810991498084411180D980844A049CC
:100E6000C988401A80B209909D48008800909C482B
:100E700040690790079CDDE90932DDE90B10A047C6
:100E80000D98401CC0B20D901498079000EBD070E4
:100E9000012101EB60010D988142BDDC00200D9025
:100EA0003DE01499129801440D98081A80B20C90F4
:100EB000DDE91301421808461099084411180D98ED
:100EC000081A8749C988084480B20B90149912986F
:100ED00001440D98081A80B20A90DDE9130101441B
:100EE00010980A1810991498084411180D9808447D
:100EF0007B49C988401A80B20990794800880090DF
:100F0000774840690790079CDDE9093200E011E06D
:100F1000DDE90B10A0470D98401CC0B20D9014984D
:100F2000079000EBD070012101EB60010D98814228
:100F3000B7DC92E50E9805287DD100200D9031E0B8
:100F40000D991298084480B20C90DDE91301084411
:100F500001460D98081A6249C988084480B20B906E
:100F60000D991298084480B20A90DDE913010144FA
:100F70001098084401460D9808445949C988401AF8
:100F800080B2099056480088009055484069079003
:100F9000079CDDE90932DDE90B10A0470D98401CE4
:100FA000C0B20D901498079000EBD070012101EBB6
:100FB00060010D988142C3DC00200D9035E014994A
:100FC000129801440D98081A80B20C90DDE91301C3
:100FD000084401460D98081A4149C988084480B25E
:100FE0000B901499129801440D98081A80B20A9037
:100FF000DDE9130101441098084401460D980844A6
:101000003749C988401A80B2099035480088009055
:10101000334840690790079CDDE90932DDE90B1090
:10102000A0470D98401CC0B20D901498079000EB9B
:10103000D070012100E005E001EB60010D988142D4
:10104000BDDC0AE50E9806287ED100200D903AE01E
:101050001499129801440D98081A2149C988084426
:1010600080B20C901099149801440122139802FB4D
:1010700001010D98084480B20B9014991298014414
:10108000119801440D9808441549C988401A80B246
:101090000A90109914980144139802FB01010D98CD
:1010A000084480B209900E48008800900C484069BE
:1010B0000790079CDDE90932DDE90B10A0470D9888
:1010C000401CC0B20D901498079000EBD070012125
:1010D00001EB60010D988142BADC00200D9042E0E6
:1010E000740100201499129801440D98081AFC49C3
:1010F000C988084480B20C901099149801440122C8
:10110000139802FB0101149801440D98081A80B24B
:101110000B90149912980144119801440D980844B9
:10112000EF49C988401A80B20A9010991498014476
:10113000139802FB0101149801440D98081A80B21B
:101140000990E748008800E018E00090E448406912
:101150000790079CDDE90932DDE90B10A0470D98E7
:10116000401CC0B20D901498079000EBD070012184
:1011700001EB60010D988142B4DC6EE40E98072803
:10118000FBD11A9800F008000028F6D014980790B8
:1011900000EBD070C0F34F0004901498069000EB61
:1011A000D0704210189913980844801A80B20390A6
:1011B000CB4800880590159912980144149808446A
:1011C00080B2029003A90EC906F098FC45E41A9873
:1011D00000F0400000287DD00E9800287BD10D90B3
:1011E0003AE01499129801440D98081ABC49C9882C
:1011F000084480B20C90109914980144002213986E
:1012000002FB01010D98084480B20B9014991298CA
:101210000144119801440D980844B149C988401A05
:1012200080B20A90109914980144139802FB0101AE
:101230000D98084480B20990A94840880090A848B9
:1012400040690790079CDDE90932DDE90B10A047F2
:101250000D98401CC0B20D901498079000EBD07010
:10126000012101EB60010D988142BADC00200D9054
:1012700041E01499129801440D98081A9849C988B8
:10128000084480B20C9010991498014400221398DD
:1012900002FB0101149801440D98081A80B20B90CA
:1012A000149912980144119801440D9808448C49EE
:1012B000C988401A80B20A90109914980144139872
:1012C00002FB0101149801440D98081A80B209909C
:1012D000834801E0D1E319E04088009080484069EC
:1012E0000790079CDDE90932DDE90B10A0470D9856
:1012F000401CC0B20D901498079000EBD0700121F3
:1013000001EB60010D988142B3DC3DE40E980128A9
:101310007DD100200D9039E0149912980144119864
:1013200001440D98084480B20C90DDE91301084493
:1013300001460D98081A6A49C988084480B20B9082
:10134000149912980144119801440D98084480B2F0
:101350000A90DDE9130101441098084401460D98F4
:1013600008445F49C988401A80B209905C484088A7
:1013700000905B4840690790079CDDE90932DDE990
:101380000B10A0470D98401CC0B20D901498079008
:1013900000EBD070012101EB60010D988142BBDCB4
:1013A00000200D903DE01299149801EB4001119836
:1013B00001440D98081A80B20C90DDE9130108442D
:1013C00001460D98081A4649C988084480B20B9016
:1013D0001299149801EB4001119801440D98081AD4
:1013E00080B20A90DDE913010144109808440146D7
:1013F0000D9808443A49C988401A80B20990384883
:1014000040880090364840690790079C00E013E050
:10141000DDE90932DDE90B10A0470D98401CC0B290
:101420000D901498079000EBD070012101EB600142
:101430000D988142B7DC4EE40E9802287ED1002040
:101440000D903FE0149912980144119801440D98B1
:10145000084480B20C90DDE9130142180846109947
:10146000084411180D98081A1D49C988084480B20B
:101470000B90149912980144119801440D98084456
:1014800080B20A90DDE91301014410980A181099FE
:101490001498084411180D9808441149C988401A35
:1014A00080B209900E48408800900D48406907902E
:1014B000079CDDE90932DDE90B10A0470D98401CBF
:1014C000C0B20D901498079000EBD070012101EB91
:1014D00060010D988142B5DC00200D9046E00000CF
:1014E000740100201299149801EB400111980144F5
:1014F0000D98081A80B20C90DDE9130142180846D5
:101500001099084411180D98081AF949C988084417
:1015100080B20B901299149801EB4001119801448C
:101520000D98081A80B20A90DDE913010144109861
:101530000A18109914980844111800E021E00D9839
:101540000844EB49C988401A80B20990E8484088AD
:101550000090E74840690790079CDDE90932DDE922
:101560000B10A0470D98401CC0B20D901498079026
:1015700000EBD070012101EB60010D988142B1DCDC
:1015800043E40E9803287DD100200D903AE0149991
:10159000129801440D98081AD549C988084480B2A8
:1015A0000C901099149801440222139802FB010137
:1015B0000D98084480B20B90149912980144119828
:1015C00001440D980844CA49C988401A80B20A905B
:1015D000109914980144139802FB01010D980844D6
:1015E00080B20990C24840880090C1484069079085
:1015F000079CDDE90932DDE90B10A0470D98401C7E
:10160000C0B20D901498079000EBD070012101EB4F
:1016100060010D988142BADC00200D9040E01499E1
:10162000129801440D98081AB149C988084480B23B
:101630000C901099149801440222139802FB0101A6
:10164000149801440D98081A80B20B9014991298BE
:101650000144119801440D980844A549C988401ACD
:1016600080B20A90109914980144139802FB01016A
:10167000149801440D98081A80B209909C4840883B
:10168000009000E017E09A4840690790079CDDE968
:101690000932DDE90B10A0470D98401CC0B20D9037
:1016A0001498079000EBD070012101EB60010D98B8
:1016B0008142B4DC3DE40E9804287DD100200D90D9
:1016C00037E00D991298084480B20C90DDE91301BF
:1016D000421808461099084411180D98081A8449B0
:1016E000C988084480B20B900D991298084480B2C2
:1016F0000A90DDE91301014410980A181099149812
:10170000084411180D9808447949C988401A80B2D4
:101710000990774840880090754840690790079C79
:10172000DDE90932DDE90B10A0470D98401CC0B27D
:101730000D901498079000EBD070012101EB60012F
:101740000D988142BDDC00200D903DE01499129867
:1017500001440D98081A80B20C90DDE9130142187B
:1017600008461099084411180D98081A6049C9884C
:10177000084480B20B901499129801440D98081AED
:1017800080B20A90DDE91301014410980A181099FB
:101790001498084411180D9808445549C988401AEE
:1017A00080B20990524840880090514840690790A3
:1017B000079CDDE9093200E011E0DDE90B10A047EC
:1017C0000D98401CC0B20D901498079000EBD0709B
:1017D000012101EB60010D988142B7DC31E40E98E4
:1017E00005287DD100200D9031E00D991298084414
:1017F00080B20C90DDE91301084401460D98081AE7
:101800003B49C988084480B20B900D99129808444E
:1018100080B20A90DDE913010144109808440146A2
:101820000D9808443249C988401A80B2099030485E
:10183000408800902E4840690790079CDDE90932F6
:10184000DDE90B10A0470D98401CC0B20D90149814
:10185000079000EBD070012101EB60010D988142EF
:10186000C3DC00200D9035E01499129801440D98C6
:10187000081A80B20C90DDE91301084401460D9866
:10188000081A1B49C988084480B20B901499129811
:1018900001440D98081A80B20A90DDE91301014451
:1018A0001098084401460D9808441149C988401A07
:1018B00080B209900E48408800900D48406907901A
:1018C000079CDDE90932DDE90B10A0470D98401CAB
:1018D000C0B20D901498079000EBD070012100E089
:1018E00008E001EB60010D988142BDDC45E4000099
:1018F000740100200E9806287ED100200D903AE059
:101900001499129801440D98081AFE49C988084490
:1019100080B20C901099149801440122139802FB94
:1019200001010D98084480B20B901499129801445B
:10193000119801440D980844F249C988401A80B2B0
:101940000A90109914980144139802FB01010D9814
:10195000084480B20990EB4840880090E94840690B
:101960000790079CDDE90932DDE90B10A0470D98CF
:10197000401CC0B20D901498079000EBD07001216C
:1019800001EB60010D988142BADC00200D9040E02F
:101990001499129801440D98091ADA48C08808442D
:1019A00080B20C901099149801440122139802FB04
:1019B0000101149801440D98081A80B20B901499F3
:1019C00012980144119801440D980844CD49C988E2
:1019D000401A80B20A90109914980144139802FB9F
:1019E0000101149801440D98081A80B20990C54865
:1019F00040880090C34800E016E040690790079CCB
:101A0000DDE90932DDE90B10A0470D98401CC0B29A
:101A10000D901498079000EBD070012101EB60014C
:101A20000D988142B4DC70E40E980728FBD11A9817
:101A300000F008000028F6D01498079000EBD07052
:101A4000C0F34F0004901498069000EBD070421041
:101A5000189913980844801A80B20390A9484088C6
:101A600005901599129801441498084480B2029088
:101A700003A90EC906F042F847E40E98F0BB002017
:101A80000D903AE01499129801440D98081A9D4956
:101A9000C988084480B20C9010991498014400221F
:101AA000139802FB01010D98084480B20B90149921
:101AB00012980144119801440D9808449149C9882D
:101AC000401A80B20A90109914980144139802FBAE
:101AD00001010D98084480B209908A4880880090DE
:101AE000884840690790079CDDE90932DDE90B1061
:101AF000A0470D98401CC0B20D9000E056E014982D
:101B0000079000EBD070012101EB60010D9881423C
:101B1000B8DC00200D903EE01499129801440D9815
:101B2000081A7849C988084480B20C901099149812
:101B300001440022139802FB0101149801440D98FE
:101B4000081A80B20B90149912980144119801441C
:101B50000D9808446B49C988401A80B20A901099C0
:101B600014980144139802FB0101149801440D9844
:101B7000081A80B2099063488088009061484069E3
:101B80000790079CDDE90932DDE90B10A0470D98AD
:101B9000401CC0B20D901498079000EBD07001214A
:101BA00001EB60010D988142B6DC44E40E980128F7
:101BB0007ED100200D9038E01499129801441198BC
:101BC00001440D98084480B20C90DDE913010144F2
:101BD0000D98081A4B49C988084480B20B90149993
:101BE00012980144119801440D98084480B20A905B
:101BF000DDE9130101441098084401460D9808449A
:101C00004049C988401A80B209903E4880880090B7
:101C10003C4840690790079CDDE90932DDE90B107B
:101C2000A0470D98401CC0B20D901498079000EB8F
:101C3000D070012101EB60010D988142BCDC0020D5
:101C40000D903BE01299149801EB4001119801446A
:101C50000D98081A80B20C90DDE9130101440D982B
:101C6000081A2849C988084480B20B901299149820
:101C700001EB4001119801440D98081A80B20A90B6
:101C8000DDE913010144109801440D9808441D49F1
:101C9000C988401A80B209901A4880880090194873
:101CA00040690790079CDDE90932DDE90B1000E08F
:101CB0000FE0A0470D98401CC0B20D9014980790FB
:101CC00000EBD070012101EB60010D988142B9DC7D
:101CD00056E40E9802287DD100200D9042E0149920
:101CE00012980144119801440D98084480B20C9058
:101CF000DDE91301421808461099084411180D989F
:101D0000081A01E074010020FD49C988084480B226
:101D10000B90149912980144119801440D980844AD
:101D200080B20A90DDE91301014410980A18109955
:101D30001498084411180D980844F149C988401AAC
:101D400080B20990EE4880880090ED484069079085
:101D5000079CDDE90932DDE90B10A0470D98401C16
:101D6000C0B20D901498079000EBD070012101EBE8
:101D700060010D988142B2DC00200D9043E0129981
:101D8000149801EB4001119801440D98081A80B293
:101D90000C90DDE913014218084610990844111807
:101DA0000D98081AD649C988084480B20B90129938
:101DB000149801EB4001119801440D98081A80B263
:101DC0000A90DDE91301014410980A18109914983B
:101DD000084400E022E011180D980844C849C98859
:101DE000401A80B20990C64880880090C448406973
:101DF0000790079CDDE90932DDE90B10A0470D983B
:101E0000401CC0B20D901498079000EBD0700121D7
:101E100001EB60010D988142B1DC4BE40E98032880
:101E20007ED100200D903AE01499129801440D984B
:101E3000081AB349C988084480B20C9010991498C4
:101E400001440222139802FB01010D98084480B25C
:101E50000B90149912980144119801440D9808446C
:101E6000A749C988401A80B20A9010991498014471
:101E7000139802FB01010D98084480B20990A04814
:101E8000808800909E4840690790079CDDE90932F0
:101E9000DDE90B10A0470D98401CC0B20D901498BE
:101EA000079000EBD070012101EB60010D98814299
:101EB000BADC00200D9040E01499129801440D986E
:101EC000081A8F49C988084480B20C901099149858
:101ED00001440222139802FB0101149801440D9859
:101EE000081A80B20B901499129801441198014479
:101EF0000D9808448249C988401A80B20A90109906
:101F000014980144139802FB0101149801440D98A0
:101F1000081A80B209907A4880880090784800E0DA
:101F200016E040690790079CDDE90932DDE90B10F6
:101F3000A0470D98401CC0B20D901498079000EB7C
:101F4000D070012101EB60010D988142B4DC45E4C1
:101F50000E9804287DD100200D9037E00D9912983D
:101F6000084480B20C90DDE913014218084610992C
:101F7000084411180D98081A6149C988084480B2AC
:101F80000B900D991298084480B20A90DDE9130174
:101F9000014410980A1810991498084411180D98C3
:101FA00008445749C988401A80B20990544880882B
:101FB0000090534840690790079CDDE90932DDE94C
:101FC0000B10A0470D98401CC0B20D9014980790BC
:101FD00000EBD070012101EB60010D988142BDDC66
:101FE00000200D903DE01499129801440D98081AB4
:101FF00080B20C90DDE9130142180846109908449C
:1020000011180D98081A3E49C988084480B20B90EF
:102010001499129801440D98081A80B20A90DDE9CB
:102020001301014410980A181099149808441118C3
:102030000D9808443249C988401A80B20990304846
:10204000808800902E4840690790079CDDE909329E
:1020500000E011E0DDE90B10A0470D98401CC0B274
:102060000D901498079000EBD070012101EB6001F6
:102070000D988142B7DC39E40E9805287ED1002006
:102080000D9030E00D991298084480B20C90DDE973
:10209000130101440D98081A1949C988084480B2EF
:1020A0000B900D991298084480B20A90DDE9130153
:1020B00001441098084401460D9808441049C98805
:1020C000401A80B209900E48808800900C48406900
:1020D0000790079CDDE90932DDE90B10A0470D9858
:1020E000401CC0B20D901498079000EBD0700121F5
:1020F00001EB60010D988142C4DC00200D9037E0B7
:10210000740100201499129801440D98081A80B2A5
:102110000C90DDE91301084401460D98081AFE49A8
:10212000C988084480B20B901499129801440D9804
:10213000081A80B20A90DDE913010144109808449E
:1021400001460D980844F449C988401A80B20990A4
:10215000F14880880090F04840690790079CDDE9CD
:102160000932DDE90B10A0470D98401CC0B20D905C
:102170001498079000EBD070012100E005E001EB1E
:1021800060010D988142BDDC4DE40E9806287DD19A
:1021900000200D903AE01499129801440D98081A05
:1021A000DD49C988084480B20C9010991498014404
:1021B0000122139802FB01010D98084480B20B9094
:1021C000149912980144119801440D980844D24979
:1021D000C988401A80B20A90109914980144139843
:1021E00002FB01010D98084480B20990CA4880881A
:1021F0000090C94840690790079CDDE90932DDE994
:102200000B10A0470D98401CC0B20D901498079079
:1022100000EBD070012101EB60010D988142BADC26
:1022200000200D9040E01499129801440D98081A6E
:10223000B949C988084480B20C9010991498014497
:102240000122139802FB0101149801440D98081A09
:1022500080B20B90149912980144119801440D9882
:102260000844AD49C988401A80B20A901099149860
:102270000144139802FB0101149801440D98081AB7
:1022800080B20990A4488088009000E017E0A2483E
:1022900040690790079CDDE90932DDE90B10A04792
:1022A0000D98401CC0B20D901498079000EBD070B0
:1022B000012101EB60010D988142B4DC75E40E98B8
:1022C0000728FBD11A9800F008000028F6D01498CF
:1022D000079000EBD070C0F34F0004901498069064
:1022E00000EBD0704210189913980844801A80B2FD
:1022F0000390894880880590159912980144149894
:10230000084480B2029003A90EC905F0F7FB4CE423
:10231000DDE90E10084100F001000028CED07E4813
:1023200001887E4801800E9800287DD17A48008877
:1023300000901099149801440022139802FB0100A8
:1023400080B207901499129801441198084480B201
:102350000690109914980144139802FB010080B272
:10236000059014991298084480B2049005A90EC9EA
:1023700000F0DEFE6848008800901498079000EB9B
:10238000D07041101398084480B2049014980690BD
:1023900000EBD07041101298084480B2039012995B
:1023A0001498084480B205900246139BDDE90301AE
:1023B00000F0BEFE5848008800901498079000EB8B
:1023C000D07041101398084480B20490149800EB28
:1023D0004000069000EBD070411012980144119813
:1023E000084480B20390129914980144119808444B
:1023F00080B205900246139BDDE9030100F098FED0
:102400004548008800901498079000EBD070411068
:102410001398084480B203901498069000EBD07093
:1024200041101298084400E065E080B20290DDE9B6
:102430001310084480B2059012991498084480B291
:1024400004900246059BDDE9020100F071FE32486E
:10245000008800901498079000EBD07041101398FA
:10246000084480B20390149800EB4000069000EB03
:10247000D0704110129801441198084480B2029023
:10248000DDE91310084480B20590129914980144B4
:102490001198084480B204900246059BDDE90201D0
:1024A00000F046FE1C4800880090109914980144E2
:1024B0000022139802FB01011498084480B207908F
:1024C0001499129801441198084480B2069010990A
:1024D00014980144139802FB01011498084480B237
:1024E000059014991298084480B2049005A90EC969
:1024F00000F01EFE91E40E9801287DD10648008868
:1025000000901498079000EBD07041101398084485
:1025100080B20390149803E0740100208C01002025
:1025200000EB4000069000EBD0704110129801447F
:102530001198084480B20290DDE91310084480B27B
:1025400005901299149801441198084480B204909F
:102550000246059BDDE9020100F0EAFDFD48008826
:1025600000901498079000EBD07041101398084425
:1025700080B20390149800EB4000069000EBD070FE
:102580004110129801441198084480B20290DDE98C
:102590001310084480B205901299149801EB400181
:1025A0001198084480B204900246059BDDE90201BF
:1025B00000F0BEFDE74800880090DDE9130101440A
:1025C0001098084480B20790DDE91301084480B2F6
:1025D0000590129801441198084480B2069014990D
:1025E000129801441198084480B2049005A90EC9BC
:1025F00000F09EFDD74800E085E000880090DDE90E
:10260000130101441098014488B20790DDE91301D9
:10261000014488B205901299149801EB4001119879
:10262000084480B206901299149801EB4001119869
:10263000084480B2049005A90EC900F079FDC54890
:1026400000880090149800EB4000079000EBD070D9
:102650004110139801441098084480B203901498D4
:1026600000EB4000069000EBD0704110129801443E
:102670001198084480B2029010991398014414985C
:10268000084480B2059014991298014411980844A6
:1026900080B204900246059BDDE9020100F048FD8E
:1026A000AC4800880090149800EB4000079000EBC5
:1026B000D0704110139801441098084480B20390E0
:1026C000149800EB4000069000EBD0704110129877
:1026D00001441198084480B2029010991398014463
:1026E0001498084480B205901299149801EB4001A7
:1026F0001198084480B204900246059BDDE902016E
:1027000000F016FD23E40E9802287DD19148008840
:102710000090109913980144149801EB400080B286
:102720000590149800EB4000079000EBD07041102A
:10273000139801441098084480B20390149800EB59
:102740004000069000EBD07041101298014411989F
:10275000084480B2029014991298014411980844D8
:1027600080B204900246059BDDE9020100F0E0FC26
:10277000784800880090109913980144149801EB50
:10278000400080B20590149800EB4000079000EBE9
:10279000D0704110139801441098084480B20390FF
:1027A000149800EB4000069000EBD0704110129896
:1027B00001441198084480B202901299149801EBD8
:1027C00040011198084480B204900246059BDDE95F
:1027D000020100F0ADFC5F4800880090DDE91301C4
:1027E000014410980A18109914980844104480B2B3
:1027F0000790DDE913014218084610990844104477
:1028000080B20590149900E0A6E012980144119856
:10281000084480B206901499129801441198084413
:1028200080B2049005A90EC900F082FC49480088D6
:102830000090DDE91301014410980A1810991498CA
:102840000844104480B20790DDE91301421808469D
:1028500010990844104480B205901299149801EB25
:1028600040011198084480B206901299149801EB27
:1028700040011198084480B2049005A90EC900F0E7
:1028800057FC344800880090149800EB80000790B3
:1028900000EBD070411013980144109801EB4000F8
:1028A00080B20390149800EB4000069000EBD070CB
:1028B0004110129801441198084480B20290109976
:1028C00014980844139901EB400080B205901499C4
:1028D000129801441198084480B204900246059B66
:1028E000DDE9020100F024FC1A48008800901498E9
:1028F00000EB8000079000EBD0704110139801446A
:10290000109801EB400080B20390149800EB400057
:10291000069000EBD07041101298014411980844C1
:1029200080B20290109914980844139901EB40006A
:1029300080B205901299149801EB40011198084457
:1029400080B204900246059BDDE9020100F0F0FB35
:10295000E2E30000740100200E9803287ED1FE48B7
:10296000008800901099149801440222139802FBE9
:10297000010080B2079014991298014411980844FC
:1029800080B20690109914980144139802FB01003C
:1029900080B2059014991298084480B2049005A959
:1029A0000EC900F0C5FBEC48008800901498079011
:1029B00000EBD070411013980A181099149808442D
:1029C00002EB400080B203901498069000EBD070A8
:1029D00041101298084480B202901099149808444B
:1029E000139901EB400080B20590129914980844A5
:1029F00080B204900246059BDDE9020100F098FBDD
:102A0000D54800880090149800EB8000079000EBF8
:102A1000D070411013980144109801EB400080B22F
:102A20000390149800EB4000069000EBD07041102A
:102A3000129801441198084480B202901099149899
:102A40000844139901EB400080B205901499129844
:102A500001441198084480B2049000E092E00246DC
:102A6000059BDDE9020100F063FBBB480088009094
:102A70001498079000EBD070411013980A18109921
:102A80001498084402EB400080B20390149806901A
:102A900000EBD07041101298084480B20290109957
:102AA00014980844139901EB40011498084480B22B
:102AB000059012991498084480B204900246059B30
:102AC000DDE9020100F034FBA3480088009014986F
:102AD00000EB8000079000EBD07041101398014488
:102AE000109801EB400080B20390149800EB400076
:102AF000069000EBD07041101298014411980844E0
:102B000080B20290109914980844139901EB400187
:102B10001498084480B205901499129801441198B1
:102B2000084480B204900246059BDDE9020100F0F2
:102B3000FFFA8948008800901099149801440222F5
:102B4000139802FB01011498084480B2079014996D
:102B5000129801441198084480B206901099149874
:102B60000144139802FB01011498084480B20590B7
:102B700014991298084480B2049005A90EC900F077
:102B8000D7FAC9E20E9804287DD1734800880090D6
:102B9000109913980144149801EB400080B20590FD
:102BA0001498079000EBD0704110139801441498CA
:102BB00001441098084480B204901498069000EBE9
:102BC000D07041101298084480B20390DDE90413DC
:102BD000129A00F0ADFA604800880090109913989E
:102BE0000144149801EB400080B2059014980790BE
:102BF00000EBD070411013980144149801441098D0
:102C0000084480B203901498069000EBD0704110F5
:102C10001298084480B2029012991498084480B225
:102C200004900246059BDDE9020100F081FA4A4862
:102C300000880090DDE91301014410980A181099EA
:102C400014980844104480B20790DDE9130142183B
:102C5000084610990844104480B206900146129A22
:102C60001046079B00F064FA3B4800880090DDE9BD
:102C70001301014410980A1810991498084410443C
:102C800080B2079000E06EE0DDE9130142180846CB
:102C900010990844104480B2059014991298084481
:102CA00080B206901298084480B2049005A90EC91B
:102CB00000F03EFA2848008800901498079000EB36
:102CC000D070411013980A1810991498084402EB18
:102CD000400080B204901498069000EBD070411030
:102CE0001298084480B203901099149808441399DC
:102CF00001EB400080B203460590129ADDE9030122
:102D000000F016FA1448008800901498079000EB21
:102D1000D070411013980A1810991498084402EBC7
:102D2000400080B203901498069000EBD0704110E0
:102D30001298084480B2029010991498084413998C
:102D400001EB400080B2059012991498084480B2BB
:102D500004900246059B01E074010020DDE90201B8
:102D600000F0E6F9D8E10E9805287DD1EF480088FB
:102D700000901498079000EBD0704110139808440D
:102D800080B204901498069000EBD0704110129815
:102D9000084480B20390DDE91310084480B2034672
:102DA0000590129ADDE9030100F0C2F9DF480088BE
:102DB00000901498079000EBD070411013980844CD
:102DC00080B203901498069000EBD07041101298D6
:102DD000084480B20290DDE91310084480B20590E7
:102DE00012991498084480B204900246059BDDE9CC
:102DF000020100F09DF9CD4800880090DDE9130143
:102E000001441098084480B20790DDE9130108449A
:102E100080B206900146129A1046079B00F088F98E
:102E2000C24800880090DDE913010144109808446D
:102E300080B20790DDE91301084480B20590129832
:102E4000084480B206901298084480B2049005A904
:102E50000EC900F06DF9B5480088009014980790ED
:102E600000EBD070411000E049E013980144149841
:102E700001441098084480B204901498069000EB26
:102E8000D07041101298084480B2039010991398A2
:102E900001441498084480B203460590129ADDE973
:102EA000030100F045F9A1480088009014980790AC
:102EB00000EBD0704110139801441498014410980D
:102EC000084480B203901498069000EBD070411033
:102ED0001298084480B202901099139801441498F3
:102EE000084480B2059012991498084480B2049066
:102EF0000246059BDDE9020100F01AF90CE10E988B
:102F000006287CD1894800880090109914980144C3
:102F10000122139802FB010080B2079014991298C5
:102F200001441198084480B2069010991498014405
:102F3000139802FB010080B205901499129808447E
:102F400080B2049005A90EC900F0F2F87748008815
:102F500000901498079000EBD07041101398014432
:102F6000149801441098084480B203901498069075
:102F700000EBD07041101298084480B20290109972
:102F8000139801441498084480B20590129914983B
:102F9000084480B204900246059BDDE9020100F07E
:102FA000C7F8624800880090149800EB4000079032
:102FB00000EBD0704110139801441098084480B27F
:102FC0000390149800EB4000069000EBD070411085
:102FD000129801441198084480B2029010991398F5
:102FE00001441498084480B2059014991298014441
:102FF0001198084480B204900246059B00E08AE0E4
:10300000DDE9020100F094F848480088009010992A
:1030100013980144149801EB400080B20590149875
:10302000079000EBD07041101398014414980144AC
:103030001098084480B203901498069000EBD0706A
:1030400041101298084480B20290129914980844D2
:1030500080B204900246059BDDE9020100F068F8A9
:10306000324800880090109913980144149801EB9D
:10307000400080B20590149800EB4000079000EBF0
:10308000D0704110139801441098084480B2039006
:10309000149800EB4000069000EBD070411012989D
:1030A00001441198084480B2029014991298014486
:1030B0001198084480B204900246059BDDE90201A4
:1030C00000F036F8194800880090109914980144CF
:1030D0000122139802FB01011498084480B2079062
:1030E0001499129801441198084480B206901099DE
:1030F00014980144139802FB01011498084480B20B
:10310000059014991298084480B2049005A90EC93C
:1031100000F00EF800E000BF0E98401CC0B20E9008
:103120000E980828FDF607AC16B010BD74010020FB
:103130002DE9FC4104460D4616461F46DDF8208069
:10314000054880793B4632462946CDE900082046AD
:1031500004F050FCBDE8FC817401002030B4034D44
:10316000029C2C6030BC01F01DBB00001C00002044
:1031700070B5B3F5804F05D06FF0704140F8221064
:10318000002070BD50F82230084C2340D1E90045A2
:1031900044EA05148D688E892D0245EA0645896941
:1031A0002C430C431C4340F82240E9E70000F0CFD9
:1031B000F0B50C6850F82450114A1540D1E90123AC
:1031C000D1E903671A433E4332434E6932438E6965
:1031D0003243CE6932430E6A32434E6A32438E6ABC
:1031E0003243CE6A3243CE6B096B32430A432A43E1
:1031F000082B01D142F0400240F824200020F0BD0D
:103200008000F0FF30B500EB82004268D1E9003465
:1032100043EA04138C688D89240244EA054423435D
:103220000C8A084D02F0404205EB045423430C7D08
:103230006D0105EB0464896923430B431343436029
:10324000002030BD0000F0FF90F83510022903D0B7
:103250008021416501207047052180F83510006804
:10326000016821F001010160002070472DE9F84F4D
:10327000DFF88C91002209F1040A0AF1040B4FF0E7
:103280000F080BF1040E01260B6896403340B34241
:1032900071D14C68022C01D0122C11D1D40800EB52
:1032A00084073D6A5407E40E08FA04FC25EA0C057D
:1032B000D1F810C00CFA04FC4CEA050CC7F820C089
:1032C00007685400032591F804C0A5400CF0030CD6
:1032D000AF430CFA04FC4CEA070CC0F800C04F687E
:1032E000012F05D0022F03D0112F01D0122F11D1A1
:1032F0008768D1F80CC0AF430CFA04FC4CEA070C09
:10330000C0F808C04768B7430E79C6F30016964068
:103310003E434660C668AE438D68A5403543C560F0
:103320004C68E40065D5374C256845F48045256038
:10333000246822F0030504F480440094324C2E19D2
:10334000D6F808789407250F08FA05F4A7432F4C00
:10335000A04201D1002424E02D4CA04201D101243F
:103360001FE02C4CA04201D102241AE02A4CA042BA
:1033700002D1032415E03CE0284CA04201D10424F2
:103380000FE0274CA04201D105240AE0254CA042C1
:1033900001D1062405E0244CA04201D1072400E01D
:1033A0000824AC403C43C6F80848D9F800404D46D4
:1033B0004E689C43F60300D51C432C60DAF80040AD
:1033C00055464E689C43B60300D51C432C60DBF881
:1033D00000405D464E689C43F60200D51C432C60BD
:1033E000DEF8004075464E689C43B60200D51C438B
:1033F0002C60521C102AFFF446AFBDE8F88F000085
:10340000003C0140443802400030014000000240CE
:103410000004024000080240000C0240001002407C
:103420000014024000180240001C02400AB18161F1
:1034300070470904FBE7000001480068000C704772
:10344000002004E00148806870470000040000206C
:1034500002488168027811448160704704000020AE
:10346000094810B5016841F400710160016841F438
:1034700080610160052000F057F80F2000F006F889
:1034800000F024F8002010BD003C024070B50D4D46
:1034900004464FF47A712878B1FBF0F00A490968C4
:1034A000B1FBF0F000F060FF48B9102C07D2002209
:1034B0002146501E00F018F800206C6070BD0120FD
:1034C00070BD0000040000200000002070470028AC
:1034D00009DB00F01F02012191404009800000F14A
:1034E000E020C0F800117047F0B40E4B1B68C3F326
:1034F0000223C3F10704042C00D904241D1D072D49
:1035000001D2002300E0DB1E012606FA04F56D1E41
:103510000D409D409E40761E164045EA0601F0BCD7
:1035200004F051BA0CED00E0064A00F00701106803
:103530004FF6FF03184040EA01200349084310609A
:10354000704700000CED00E00000FA050149012081
:103550000862704700000E422DE9F84304460068F7
:103560004FF00109C1074FF0000501D1400726D5F2
:10357000DFF80C81C8F86850FFF764FF0646414F3A
:1035800004E0FFF75FFF801B022857D8386800016E
:10359000F7D46068217A800140EA017039498431AA
:1035A0000860C8F86890FFF74DFF064604E0FFF793
:1035B00049FF801B022841D838680001F7D52078E0
:1035C000800752D52F484030016841F0805101609A
:1035D00000682D4F00F080500090386840F48070F3
:1035E0003860FFF72FFF064604E0FFF72BFF801B34
:1035F000022823D83868C005F7D5224E70363068C7
:1036000010F4407020D0A18901F4407181421BD098
:1036100030681E4920F44070C1F800900D603060A1
:103620003068C00710D0FFF70DFF054641F288371C
:1036300007E0FFF707FF401BB84202D90320BDE8AF
:10364000F88330688007F4D5E0680E49C0F30122A2
:103650000831032A0BD0086820F4F810086030689D
:10366000A189C1F30B01084330600020E7E70A6835
:10367000074B22F4F812184002430A60EFE70000FB
:10368000000047420038024000700040400E4742B0
:10369000FFFCFF0F2DE9F0470D46040065D0DFF871
:1036A0001491D9F80000EFB200F00F00A84207D241
:1036B00089F80070D9F8000000F00F00A84254D13A
:1036C00020683D4E810712D5400703D5306840F48D
:1036D000E05030602078000703D5306840F4604047
:1036E00030603068A16820F0F00008433060207836
:1036F000C0072DD0304960680839012812D002284F
:1037000013D0032811D00968890700292DDA316800
:1037100021F0030101433160FFF794FE804641F23E
:10372000883A0EE009688903EFE709688901ECE748
:10373000FFF788FEA0EB0801514502D90320BDE840
:10374000F0873068616800F00C00B0EB810FEFD1BA
:10375000D9F80010484601F00F01A94207D90770B7
:10376000006800F00F00A84201D00120E7E72078B0
:10377000400705D53068E16820F4E0500843306028
:103780002078000706D53068216920F4604040EABF
:10379000C100306000F036F83168084AC1F3031107
:1037A000515CC840064908600F20FFF76FFE0020FB
:1037B000C5E70000003C0240083802407A9000084B
:1037C000000000200448054900680968044AC1F364
:1037D0008221515CC8407047000000200838024038
:1037E0008A9000080448054900680968044AC1F342
:1037F0004231515CC8407047000000200838024048
:103800008A900008154810B5006810F00C011448A3
:1038100013D0431004290FD008290ED10F4C241FB8
:10382000216801F03F022168490207D52068C0F3F2
:103830008810A0FB030106E0184610BD2168C1F303
:103840008811A1FB00010023FCF73FFD2168C1F3B3
:103850000141491C4900B0FBF1F010BD083802409D
:103860000024F4002DE9F84F040073D02078BD4DFA
:10387000C00748D0BB4808300168C1F38101012965
:1038800008D00068C0F3810002280AD1281D006812
:10389000400206D52868800335D560680028E4D04A
:1038A00031E06068B0F5803F10D0B0F5A02F2868F7
:1038B00010D020F480302860286820F48020286010
:1038C0006068A0B1FFF7BEFD06460CE0286840F432
:1038D0008030F4E740F480202860F7E7FFF7B2FD7E
:1038E000801B642872D828688003F7D50BE0FFF7A7
:1038F000A9FD064604E0FFF7A5FD801B6428F1D86A
:1039000028688003F7D42078DFF85C9280074FF0B6
:10391000000A3ED593480830016811F00C0F09D019
:103920000068C0F3810002280BD18E48001D00689A
:10393000400206D42868800715D5E068012809D11F
:1039400011E0E068B8B10120C9F80000FFF77AFD86
:10395000064605E003E1FFF775FD801B0228C1D88C
:1039600028688007F7D52868216920F0F80040EA28
:10397000C10028600DE0C9F800A0FFF763FD06460E
:1039800004E0FFF75FFD801B02281FD8286880072E
:10399000F7D42078000722D5724F744960697437D4
:1039A00070B101200860FFF74DFD064604E0FFF707
:1039B00049FD801B022809D838688007F7D50EE03A
:1039C000C1F800A0FFF73EFD064605E081E0FFF7E5
:1039D00039FD801B02287CD838688007F7D420780E
:1039E000400769D5DFF87CB14FF000080BF1400BC0
:1039F000DBF80000C0000CD4DBF8001041F080516F
:103A0000CBF80010DBF800004FF0010800F0805008
:103A10000090574F3868C0050FD4386840F4807064
:103A20003860FFF70FFD064604E0FFF70BFD801B33
:103A300002284ED83868C005F7D54A4FA0687037BD
:103A400001280FD00528386810D020F00100386018
:103A5000386820F004003860A068B0B1FFF7F2FCCD
:103A600006460EE0386840F00100F4E740F004003C
:103A70003860F7E7FFF7E6FC811B41F288308142AE
:103A800065D838688007F5D50DE0FFF7DBFC064602
:103A900006E0FFF7D7FC811B41F28830814256D8FF
:103AA00038688007F5D4B8F1000F05D0DBF80010B6
:103AB00021F08051CBF80010A069C8B32949083122
:103AC0000968C1F38101022949D00228504607D074
:103AD00000E03CE0C9F86000FFF7B4FC044639E0C0
:103AE0004F46C9F86000FFF7ADFC064604E0FFF75B
:103AF000A9FC801B02282AD828688001F7D4D4E9C1
:103B000007010843A16A1B4A490802EB0141626AA6
:103B100041EA8211084394F82C1040EA01611148EF
:103B2000001D016001203866FFF78CFC044605E0AB
:103B300013E0FFF787FC001B022808D828688001E3
:103B4000F7D50AE0FFF77EFC001B022802D903200C
:103B5000BDE8F88F28688001F4D40020F8E7012040
:103B6000F6E700000038024000004742800E47425E
:103B7000007000400000FFFF70470068503050F8B0
:103B8000210070470068503040F821207047000045
:103B90002DE9F8478946017F924601292AD001255F
:103BA0000577022141770268CA21516201685322D8
:103BB0004A6201688A68334F52054FF000033F683C
:103BC0004FF0FF044FF003064FF4FA4C15D5B7FB46
:103BD000FCF24FF47A7802FB08F20092B2F101088D
:103BE000CDF8008001D24C6217E0CA68520704D5B4
:103BF0004246F3E70220BDE8F8878A6822F4806233
:103C00008A60B7FBFCF14FF47A725143009102686D
:103C100000994F1E009704D2546246770377032021
:103C2000E9E7D1684907F3D5C2F8149001688A68BA
:103C300022F007028A6001688A6842EA0A028A6002
:103C400011490A6842F480020A600F4908310A6883
:103C500042F480020A600168CA6802F0800262F4DD
:103C60009062CA6001688A6842F480428A60016892
:103C70008A6842F480628A6001684C624577037703
:103C80000020B8E700000020003C01400449D1F8C2
:103C9000A80218B10020C1F8A80270470120FAE775
:103CA0000080424210B504460068C16849050CD541
:103CB0008068400409D52046FFF7E8FF2068C16806
:103CC00001F0800161F49061C16003494FF480000C
:103CD00008600120607710BD143C014001A0FCF792
:103CE0006BBB0000414C41524D2041210D0A0000A8
:103CF00010B504460068C168C9050CD58068C004C9
:103D000009D52046FFF7EAFF2068C16801F080016D
:103D100061F4C071C1602068C16889050CD58068F4
:103D2000800409D52046FFF727FF2068C16801F00D
:103D3000800161F42071C16003494FF400300860D4
:103D40000120607710BD0000143C014010B50068F0
:103D50000B4641680D480140080CD870C1F304249B
:103D60005C7001F03F049C70C1F34231197052B98C
:103D700003F036FAD870587803F032FA5870987811
:103D800003F02EFA9870002010BD00003FFFFF00E6
:103D900010B50B460168896A596001680969C1F369
:103DA0000E019960006801680E480140C1F30540AA
:103DB0001870C1F306245C7001F07F049C704024ED
:103DC00004EA1141D97052B903F00AFA1870587810
:103DD00003F006FA5870987803F002FA9870002001
:103DE00010BD00007F7F7F0070B5040002D0607FAF
:103DF00010B106E0012070BD00202077204600F0C1
:103E000049F8022060772168CA204862216853205F
:103E10004862204603F0F8F9FF25042618BB206805
:103E200081681B4A11408160206881686268114383
:103E3000D4E904231A43114381602168E0680861D2
:103E400020680169228941EA024101612068C16854
:103E500021F08001C16020688068800607D4204678
:103E600000F0D4F918B1206845626677C2E720688F
:103E7000016C21F4802101642068016CA269114366
:103E800001642068456201206077002070BD000059
:103E9000BFFF8FFF10B5104892B00024016841F0B9
:103EA00080510160006800F080501090FFF74EFBD9
:103EB000042006940090012468460294FFF7D2FC87
:103EC00002200C90C0010F900CA8FFF745FB03489F
:103ED000046012B010BD0000403802403C0E474262
:103EE000F8B503465A480C464FF4FA410068B0FB57
:103EF000F1F0491148430090187F012863D0012652
:103F00001E770220587718680025002A80684FEA3B
:103F100040605AD0002800DBE570A1782278E7786D
:103F200041EA02416278E069120242EA0742114323
:103F300094F8202041EA0262024360696768024304
:103F4000A06919680743CA2048621968532048626B
:103F5000606AFF24B0F5807F18684FF0030C816819
:103F60004ED021F4007181601868C16801F08001B1
:103F700061F42071C16019680098B0F1010ECDF8AC
:103F800000E05ED3C8688007F6D50A6218688764C7
:103F90001868816841F4007181601868816841F493
:103FA000005181602B48016841F4003101602948CB
:103FB0000830016841F400310160186844625E779E
:103FC0001D770020F8BD0220F8BD002800DBE57059
:103FD000207803F00EF90204607803F00AF942EA4F
:103FE0000022A07803F005F90243E07842EA00429B
:103FF00094F8200003F0FDF842EA0062E0699BE7D4
:1040000021F4807181601868C16801F0800161F459
:10401000C071C16019680098B0F1010ECDF800E0E0
:104020000FD3C868C007F6D0CA611868476418681B
:10403000816841F4807181601868816841F4805121
:10404000AFE74C6283F81DC01D770320F8BD000068
:1040500000000020003C01402DE9F0470446007FAD
:104060000B4601281FD04FF0010984F81C90022054
:104070006077DAB19878D97840EA014558781978AC
:10408000000240EA413005432168CA2048622168A5
:1040900053204862204603F0B7F80026FF274FF070
:1040A000040860BB1AE00220BDE8F0875878C1061A
:1040B00003D500F0EF000A305870D87803F099F873
:1040C0000204587803F095F842EA0022987803F049
:1040D00090F80243187842EA4035D5E70F4805408A
:1040E000206845602068C16821F08001C1602068B7
:1040F000806880060AD4204600F088F830B1206835
:10410000476284F81D8026770120CDE7206847624A
:1041100084F81D9026770020C6E700003FFFFF00CF
:104120002DE9F0470446007F0D46012827D04FF0C7
:10413000010A84F81CA002206077206800268068AD
:104140004FEA4060F2B1002800DBEE70A8782978D1
:1041500040EA01476878E978000240EA01400743F5
:104160002168CA204862216853204862204603F033
:104170004BF84FF0FF084FF00409A0BB16E00220F7
:10418000BDE8F087002800DBEE70287803F031F8F6
:104190000204687803F02DF842EA0022A87803F0C0
:1041A00028F80243E87842EA0047D9E71648074072
:1041B000206807602068816821F480218160D5E94A
:1041C0000310014320688268114381602068C16840
:1041D00021F08001C1602068806880060BD42046F1
:1041E00000F014F838B12168C1F8248084F81D90DB
:1041F00026770120C4E72168C1F8248084F81DA037
:1042000026770020BCE700007F7F7F0070B5054661
:104210000068C16821F0A001C160FFF713F90446EE
:104220004FF47A7606E0FFF70DF9001BB04201D992
:10423000032070BD2868C0688006F4D5002070BDDA
:1042400070B515460E46040003D094F8490010B12D
:1042500007E0012070BD002084F84800204600F0EF
:104260001BF804F108012068FEF7A2FF3146A2689E
:104270002068FEF7C7FFD4E901022946236BFEF749
:1042800077FFA168206850F8212042F0010240F831
:104290002120002070BD0000284810B5016886B0BC
:1042A00041F001010160006800F001000590234821
:1042B0000838016841F008010160016801F0080157
:1042C0000591016841F010010160016801F01001E1
:1042D0000591016841F020010160016801F02001B1
:1042E0000591016841F0400101600068694600F0F5
:1042F000400005904CF233700090022001900120A4
:104300000290032003900C2004900D48FEF7AEFFAE
:104310004FF68070009069460A48FEF7A7FF4FF4F9
:104320008054694608480094FEF7A0FF6946074894
:104330000094FEF79BFF06B010BD00003838024025
:10434000000C02400010024000140240001802401D
:104350004FF0E0210428086903D020F00400086130
:10436000704740F00400FAE710B5401EB0F1807FBE
:1043700001D3012010BD4FF0E02460610F216017D0
:1043800003F021FB0020A06107202061002010BD68
:1043900010B5040003D094F83D0010B107E00120EF
:1043A00010BD002084F83C00204600F00CF80220EC
:1043B00084F83D00211D206803F076F8012084F880
:1043C0003D00002010BD70470168CA6842F001023C
:1043D000CA600068816801F00701062903D00168FE
:1043E00041F00101016000207047704710F8391F4B
:1043F000407808437047000070B5026804461068B2
:10440000D168536910F00F0F50D003F0010501F48B
:10441000907635435DD0C20705D0CA0503D5E26B5F
:1044200042F00102E263420705D5DA0703D0E26BEE
:1044300042F00202E263820705D5DA0703D0E26B9D
:1044400042F00402E263020705D5DA0703D0E26B0B
:1044500042F00802E263E26B002A33D0800604D502
:10446000880602D5204603F0C3F820684069E16B56
:10447000C0F38010090700D428B3204603F0AAF83F
:104480002068416949061AD5416921F0400141611E
:10449000606BA0B11B490165606BFEF7D5FE00287B
:1044A00010D0606B016DBDE870400847830610D5E1
:1044B0008B060ED52046BDE8704003F099B8204623
:1044C000FFF793FF70BD2046FFF78FFF0020E063EA
:1044D00070BD030606D50B0604D52046BDE8704026
:1044E00003F028BA4006F3D54806F1D5D168204636
:1044F00021F04001D160202184F8391000F0CAF881
:1045000070BD0000C575000870B5040004D094F8B3
:104510003900002510B106E0012070BD84F8385044
:10452000204600F023F8242084F839002068C16870
:1045300021F40051C160204603F0A6F8206801690B
:1045400021F4904101612068416921F02A01416113
:104550002068C16841F40051C160E563202084F8FF
:10456000390084F83A00002070BD000010B50068E2
:104570001A4986B088422FD11948016841F00101DB
:104580000160006800F001000590154814300168D2
:1045900041F0100101600068012100F01000059059
:1045A0004FF4007000900220CDE901010390072034
:1045B0000C4C049069462046FEF758FE21150091E8
:1045C00069462046FEF752FE2520FEF780FF0322B3
:1045D00011462520FEF788FF06B010BD00100140EF
:1045E000303802400000024090F83A30202B22D1AF
:1045F000F9B1F2B190F83830012B1CD0816282857C
:10460000C2850021C163222280F83A2080F8381048
:104610000168CA6842F48072CA6001684A6942F05F
:1046200001024A610068C16841F02001C1600020B8
:1046300070470120704702207047000030B50068C5
:10464000114988420CD1114A5088010408D41146FE
:10465000440409784FF0000306D50A2901D053809D
:1046600030BD40F400400DE00D2909D0C0F30D0429
:10467000074D401C80B229555080C728EFD830BD67
:1046800040F48040508030BD0010014014000020F4
:10469000A00100207047FEE770B506460A480024D6
:1046A0000188458820464D43214602F025FC02F052
:1046B00055FDB1B24FF0D84002E0A0F88010641C64
:1046C000AC42FAD370BD0000F80200202DE9F04F93
:1046D000334B2C24194698712A2589882B2645F2BC
:1046E000105B4FF4305E4FF448774FF0F00949F219
:1046F000413A4FF4A07845F2103C4FF4F07258B1B3
:10470000A3F80080A3F80290514501D0614529D15A
:104710001C815D819E8139E0A3F80090A3F802809E
:10472000514501D0614508D11C815D819E81614563
:1047300031D1A3F800805A802DE0594508D1A3F863
:1047400008E04FF4285058814FF42C50988106E02F
:10475000A1F5C85063381ED11C815E819D811A80ED
:104760005F8018E0594508D1A3F808E04FF42850BD
:1047700058814FF42C50988106E0A1F5C850633859
:1047800004D11C815D819E811F805A80614502D1C8
:104790001A80A3F80280BDE8F04F002002F0D0BAE2
:1047A000F80200202DE9FE4F0026A2EB0008824609
:1047B0005F1A701E35468946B8F1000F02DD4FF0D2
:1047C000010102E003D14FF00001019102E0C8F1C4
:1047D00000080190002F02DD4FF0010002E003D13C
:1047E0004FF00000009002E0C7F100070090404643
:1047F000B84501DD044600E03C46601C4FF0000B6C
:10480000029015E01FFA89F11FFA8AF000F016F8FD
:1048100046443D44A64202DD0199361B8A44A54226
:1048200002DD00992D1B89440BF101001FFA80FB6A
:1048300002998B45E6DDBDE8FE8F000000B502F071
:104840005BFB02F08BFC03484FF0D8410088A1F8D5
:10485000800000BD1C0000202DE9F041374D90463E
:104860000C4602460F0AA8882946160A4989A0F56F
:104870001343413B0CD0A0F5A643103B08D0A0F554
:10488000AA43103B11D0A0F5C853633B27D04BE09F
:10489000084602F057FC304602F048FCD0B202F065
:1048A00045FCA88902F04EFC38E0084602F04AFCBC
:1048B000304602F03BFC6889401C80B202F042FCAA
:1048C000D0B202F033FCA88902F03CFC384602F07A
:1048D0002DFCA889401C80B202F034FC21E0A879AC
:1048E00018B92888801A401E82B2084602F02AFCB5
:1048F000160A304602F01AFCD0B202F017FC30461D
:1049000002F014FCD0B202F011FCA88902F01AFCEB
:10491000384602F00BFCE0B202F008FC384602F028
:1049200005FCE0B202F002FC4FF0D840298920F8E3
:104930007E1FA0F80280BDE8F0810000F802002090
:104940002DE9F04FFF4895B00024016841F00201C5
:10495000016000684FF0010800F00200139003208E
:104960004FF4004BCDE91080CDE90EB80EA9F64802
:10497000FEF77CFCF548F6494FF02045C0E90051B0
:104980000621C0E902141021C0E904418461090232
:10499000C461C0E909418900C0E90B418901446350
:1049A000C0E90E410F20CDE907043C200990092001
:1049B000CDE9000408200D94029003946A4607A9EB
:1049C0000694E248FFF73CFC322003F0FBF8D320CA
:1049D00002F0B8FB02F082F9DC4A5032908002F01B
:1049E0007DF9908002F07AF94FF6FF7909EA00200C
:1049F000908002F073F9918849F2413A084390801F
:104A000045F2103645F2105441F66317504548D030
:104A1000D42002F097FB02F061F9908002F05EF979
:104A2000908002F05BF909EA0020908002F056F9CC
:104A3000918808439080B04233D04FF45A4002F03E
:104A400081FB02F04BF990804FF45B4002F07AFB5F
:104A500002F044F909EA002090804FF45C4002F033
:104A600071FB02F03BF9918808439080584501D1D1
:104A7000948016E0A04214D0A12002F063FB02F063
:104A80002DF9908002F02AF909EA0020908002F0C6
:104A900025F991880843A0F5AE419080613900D195
:104AA000978091469188ABA0FBF786FCB9F804008B
:104AB00050457CD1CF2002F045FB002002F036FBB0
:104AC000C12002F033FB302002F030FBED2002F079
:104AD00039FB642002F02AFB032002F027FB12209E
:104AE00002F024FB812002F021FBE82002F02AFBE7
:104AF000852002F01BFB102002F018FB7A2002F048
:104B000015FBCB2002F01EFB392002F00FFB2C20FE
:104B100002F00CFB002002F009FB342002F006FB3F
:104B2000022002F003FBF72002F00CFB202002F031
:104B3000FDFAEA2002F006FB002002F0F7FA00205E
:104B400002F0F4FAC02002F0FDFA1B2002F0EEFAA7
:104B5000C12002F0F7FA012002F0E8FAC52002F0C5
:104B6000F1FA302002F0E2FA302002F0DFFAC7203A
:104B700002F0E8FAB72002F0D9FA362002F0E2FAA1
:104B8000482002F0D3FA3A2002F0DCFA552002F075
:104B9000CDFAB12002F0D6FA002002F0C7FA1A20AE
:104BA00002F0C4FAB62002F0CDFA0A2000E097E045
:104BB00002F0BCFAA22002F0B9FAF22002F0C2FA26
:104BC000002002F0B3FA262002F0BCFA012002F025
:104BD000ADFAE02002F0B6FA0F2002F0A7FA2A2080
:104BE00002F0A4FA282002F0A1FA082002F09EFAAE
:104BF0000E2002F09BFA082002F098FA542002F0EE
:104C000095FAA92002F092FA432002F08FFA0A20C6
:104C100002F08CFA0F2002F089FA002002F086FAE6
:104C2000002002F083FA002002F080FA002002F057
:104C30007DFAE12002F086FA002002F077FA1520D2
:104C400002F074FA172002F071FA072002F06EFAEF
:104C5000112002F06BFA062002F068FA2B2002F015
:104C600065FA562002F062FA3C2002F05FFA052055
:104C700002F05CFA102002F059FA0F2002F056FA06
:104C80003F2002F053FA3F2002F050FA0F2002F0CA
:104C90004DFA2B2002F056FA002002F047FA0020CD
:104CA00002F044FA012002F041FA3F2002F03EFAFD
:104CB0002A2002F047FA002002F038FA002002F021
:104CC00035FA002002F032FAEF2002F02FFA11201C
:104CD00002F038FA782002F075FF292001F010BFA9
:104CE000B0427CD1ED2002F02DFA012002F01EFA34
:104CF000FE2002F01BFAEE2002F024FADE2002F081
:104D000015FA212002F012FAF12002F01BFA01201C
:104D100002F00CFADF2002F015FA102002F006FA79
:104D2000C42002F00FFA8F2002F000FAC62002F031
:104D300009FA002002F0FAF9E22002F0F7F9E22085
:104D400010E000003038024000040240A8020020B9
:104D5000040100A0204C43442049443A25780D0A20
:104D60000000000002F0E2F9E22002F0DFF9BF20CB
:104D700002F0E8F9AA2002F0D9F9B02002F0E2F935
:104D80000D2002F0D3F9002002F0D0F90D2002F03E
:104D9000CDF9002002F0CAF9112002F0C7F9002075
:104DA00002F0C4F9192002F0C1F9002002F0BEF9A6
:104DB000212002F0BBF9002002F0B8F92D2002F00A
:104DC000B5F9002002F0B2F93D2002F0AFF9002061
:104DD00002F0ACF95D2002F0A9F9002000E0FCE34C
:104DE00002F0A4F95D2002F0A1F9002002F09EF982
:104DF000B12002F0A7F9802002F098F9002002F01B
:104E000095F98B2002F092F9002002F08FF996209C
:104E100002F08CF9002002F089F9B22002F092F938
:104E2000002002F083F9002002F080F9022002F055
:104E30007DF9002002F07AF9032002F077F90020D2
:104E400002F074F9B32002F07DF9002002F06EF94F
:104E5000002002F06BF9002002F068F9002002F057
:104E600065F9002002F062F9002002F05FF90020ED
:104E700002F05CF9002002F059F9002002F056F926
:104E8000002002F053F9002002F050F9002002F057
:104E90004DF9002002F04AF9002002F047F9002005
:104EA00002F044F9002002F041F9002002F03EF93E
:104EB000002002F03BF9002002F038F9002002F057
:104EC00035F9002002F032F9002002F02FF900201D
:104ED00002F02CF9002002F029F9B42002F032F996
:104EE0008B2002F023F9002002F020F9962002F036
:104EF0001DF9002002F01AF9A12002F017F9002094
:104F000002F014F9B52002F01DF9022002F00EF9AA
:104F1000002002F00BF9032002F008F9002002F053
:104F200005F9042002F002F9002002F0FFF8B62093
:104F300002F008F9002002F0F9F8002002F0F6F87B
:104F4000B72002F0FFF8002002F0F0F8002002F095
:104F5000EDF83F2002F0EAF8002002F0E7F85E20CA
:104F600002F0E4F8002002F0E1F8642002F0DEF83C
:104F7000002002F0DBF88C2002F0D8F8002002F0CC
:104F8000D5F8AC2002F0D2F8002002F0CFF8DC20F7
:104F900002F0CCF8002002F0C9F8702002F0C6F848
:104FA000002002F0C3F8902002F0C0F8002002F0C8
:104FB000BDF8EB2002F0BAF8002002F0B7F8DC20D0
:104FC00002F0B4F8002002F0B1F8B82002F0BAF80C
:104FD000002002F0ABF8002002F0A8F8002002F058
:104FE000A5F8002002F0A2F8002002F09FF80020AF
:104FF00002F09CF8002002F099F8002002F096F8E8
:10500000BA2002F09FF8242002F090F8002002F06D
:105010008DF8002002F08AF8002002F087F8C12005
:1050200002F090F8202002F081F8002002F07EF8D3
:10503000542002F07BF8002002F078F8FF2002F004
:1050400075F8002002F072F8C22002F07BF80A2006
:1050500002F06CF8002002F069F8042002F066F813
:10506000002002F063F8C32002F06CF83C2002F04C
:105070005DF8002002F05AF83A2002F057F80020BC
:1050800002F054F8392002F051F8002002F04EF8F6
:10509000372002F04BF8002002F048F83C2002F0E4
:1050A00045F8002002F042F8362002F03FF80020D8
:1050B00002F03CF8322002F039F8002002F036F815
:1050C0002F2002F033F8002002F030F82C2002F0FC
:1050D0002DF8002002F02AF8292002F027F80020FD
:1050E00002F024F8262002F021F8002002F01EF839
:1050F000242002F01BF8002002F018F8242002F00F
:1051000015F8002002F012F8232002F00FF800201A
:1051100002F00CF83C2002F009F8002002F006F83A
:10512000362002F003F8002002F000F8322001F0EF
:10513000FDFF002001F0FAFF2F2001F0F7FF002013
:1051400001F0F4FF2C2001F0F1FF002001F0EEFF50
:10515000292001F0EBFF002001F0E8FF262001F0FC
:10516000E5FF002001F0E2FF242001F0DFFF002036
:1051700001F0DCFF242001F0D9FF002001F0D6FF70
:10518000232001F0D3FF002001F0D0FFC42001F064
:10519000D9FF622001F0CAFF002001F0C7FF0520FF
:1051A00001F0C4FF002001F0C1FF842001F0BEFF28
:1051B000002001F0BBFFF02001F0B8FF002001F05B
:1051C000B5FF182001F0B2FF002001F0AFFFA420CE
:1051D00001F0ACFF002001F0A9FF182001F0A6FFAC
:1051E000002001F0A3FF502001F0A0FF002001F0FB
:1051F0009DFF0C2001F09AFF002001F097FF17207F
:1052000001F094FF002001F091FF952001F08EFF46
:10521000002001F08BFFF32001F088FF002001F057
:1052200085FFE62001F082FF002001F07FFFC5200E
:1052300001F088FF322001F079FF002001F076FFB5
:10524000442001F073FF002001F070FF652001F0A1
:105250006DFF002001F06AFF762001F067FF00205B
:1052600001F064FF882001F061FF002001F05EFF83
:10527000C62001F067FF202001F058FF002001F058
:1052800055FF172001F052FF002001F04FFF0120D1
:1052900001F04CFF002001F049FFC72001F052FF50
:1052A000002001F043FF002001F040FF002001F04A
:1052B0003DFF002001F03AFFC82001F043FF00202D
:1052C00001F034FF002001F031FF002001F02EFF3B
:1052D000002001F02BFFC92001F034FF002001F075
:1052E00025FF002001F022FF002001F01FFF002019
:1052F00001F01CFF002001F019FF002001F016FF53
:10530000002001F013FF002001F010FF002001F049
:105310000DFF002001F00AFF002001F007FF002030
:1053200001F004FF002001F001FF002001F0FEFE6B
:10533000002001F0FBFE002001F0F8FEE02001F06B
:1053400001FF162001F0F2FE002001F0EFFE1C200C
:1053500001F0ECFE002001F0E9FE212001F0E6FE64
:10536000002001F0E3FE362001F0E0FE002001F015
:10537000DDFE462001F0DAFE002001F0D7FE5220CB
:1053800001F0D4FE002001F0D1FE642001F0CEFE39
:10539000002001F0CBFE7A2001F0C8FE002001F0D1
:1053A000C5FE8B2001F0C2FE002001F0BFFE992057
:1053B00001F0BCFE002001F0B9FEA82001F0B6FE0D
:1053C000002001F0B3FEB92001F0B0FE002001F092
:1053D000ADFEC42001F0AAFE002001F0A7FECA2005
:1053E00001F0A4FE002001F0A1FED22001F09EFEFB
:1053F000002001F09BFED92001F098FE002001F072
:1054000095FEE02001F092FE002001F08FFEF320D7
:1054100001F08CFE002001F089FEE12001F092FEF7
:10542000162001F083FE002001F080FE1C2001F018
:105430007DFE002001F07AFE222001F077FE0020A0
:1054400001F074FE362001F071FE002001F06EFEC6
:10545000452001F06BFE002001F068FE522001F0B3
:1054600065FE002001F062FE642001F05FFE002076
:1054700001F05CFE7A2001F059FE002001F056FE9A
:105480008B2001F053FE002001F050FE992001F026
:105490004DFE002001F04AFEA82001F047FE00204A
:1054A00001F044FEB92001F041FE002001F03EFE73
:1054B000C42001F03BFE002001F038FECA2001F0BC
:1054C00035FE002001F032FED22001F02FFE002038
:1054D00001F02CFED82001F029FE002001F026FE6C
:1054E000E02001F023FE002001F020FEF32001F077
:1054F0001DFE002001F01AFEE22001F023FE05202F
:1055000001F014FE002001F011FE0B2001F00EFE50
:10551000002001F00BFE1B2001F008FE002001F02E
:1055200005FE342001F002FE002001F0FFFD4420C2
:1055300001F0FCFD002001F0F9FD4F2001F0F6FD27
:10554000002001F0F3FD612001F0F0FD002001F0EA
:10555000EDFD792001F0EAFD002001F0E7FD882053
:1055600001F0E4FD002001F0E1FD972001F0DEFDF7
:10557000002001F0DBFDA62001F0D8FD002001F0A5
:10558000D5FDB72001F0D2FD002001F0CFFDC220F3
:1055900001F0CCFD002001F0C9FDC72001F0C6FDDF
:1055A000002001F0C3FDD12001F0C0FD002001F07A
:1055B000BDFDD62001F0BAFD002001F0B7FDDD20D1
:1055C00001F0B4FD002001F0B1FDF32001F0AEFDCB
:1055D000002001F0ABFDE32000E00FE301F0B2FD9D
:1055E000052001F0A3FD002001F0A0FD0A2001F03C
:1055F0009DFD002001F09AFD1C2001F097FD002088
:1056000001F094FD332001F091FD002001F08EFDAA
:10561000442001F08BFD002001F088FD502001F0B6
:1056200085FD002001F082FD622001F07FFD002059
:1056300001F07CFD782001F079FD002001F076FD7D
:10564000882001F073FD002001F070FD972001F02B
:105650006DFD002001F06AFDA62001F067FD00202D
:1056600001F064FDB72001F061FD002001F05EFD56
:10567000C22001F05BFD002001F058FDC72001F0C1
:1056800055FD002001F052FDD12001F04FFD00201A
:1056900001F04CFDD52001F049FD002001F046FD50
:1056A000DD2001F043FD002001F040FDF32001F07A
:1056B0003DFD002001F03AFDE42001F043FD012012
:1056C00001F034FD002001F031FD012001F02EFD3C
:1056D000002001F02BFD022001F028FD002001F048
:1056E00025FD2A2001F022FD002001F01FFD3C20B5
:1056F00001F01CFD002001F019FD4B2001F016FD0A
:10570000002001F013FD5D2001F010FD002001F0EC
:105710000DFD742001F00AFD002001F007FD84203A
:1057200001F004FD002001F001FD932001F0FEFCDA
:10573000002001F0FBFCA22001F0F8FC002001F0A9
:10574000F5FCB32001F0F2FC002001F0EFFCBE20DC
:1057500001F0ECFC002001F0E9FCC42001F0E6FCC3
:10576000002001F0E3FCCD2001F0E0FC002001F07E
:10577000DDFCD32001F0DAFC002001F0D7FCDD20B5
:1057800001F0D4FC002001F0D1FCF32001F0CEFCAC
:10579000002001F0CBFCE52001F0D4FC002001F05A
:1057A000C5FC002001F0C2FC002001F0BFFC00207D
:1057B00001F0BCFC022001F0B9FC002001F0B6FCB5
:1057C000292001F0B3FC002001F0B0FC3C2001F0E6
:1057D000ADFC002001F0AAFC4B2001F0A7FC00204A
:1057E00001F0A4FC5D2001F0A1FC002001F09EFC72
:1057F000742001F09BFC002001F098FC842001F053
:1058000095FC002001F092FC932001F08FFC002019
:1058100001F08CFCA22001F089FC002001F086FC44
:10582000B32001F083FC002001F080FCBE2001F0D9
:105830007DFC002001F07AFCC42001F077FC002000
:1058400001F074FCCD2001F071FC002001F06EFC31
:10585000D32001F06BFC002001F068FCDC2001F09B
:1058600065FC002001F062FCF32001F05FFC0020E9
:1058700001F05CFCE62001F065FC112001F056FC13
:10588000002001F053FC342001F050FC002001F016
:105890004DFC562001F04AFC002001F047FC762028
:1058A00001F044FC002001F041FC772001F03EFCB7
:1058B000002001F03BFC662001F038FC002001F0E4
:1058C00035FC882001F032FC002001F02FFC9920EB
:1058D00001F02CFC002001F029FCBB2001F026FC8B
:1058E000002001F023FC992001F020FC002001F0B1
:1058F0001DFC662001F01AFC002001F017FC552069
:1059000001F014FC002001F011FC552001F00EFC08
:10591000002001F00BFC452001F008FC002001F004
:1059200005FC432001F002FC002001F0FFFB4420B5
:1059300001F0FCFB002001F0F9FBE72001F002FC84
:10594000322001F0F3FB002001F0F0FB552001F0C4
:10595000EDFB002001F0EAFB762001F0E7FB0020E0
:1059600001F0E4FB662001F0E1FB002001F0DEFB2A
:10597000672001F0DBFB002001F0D8FB672001F07D
:10598000D5FB002001F0D2FB872001F0CFFB0020E7
:1059900001F0CCFB992001F0C9FB002001F0C6FB0F
:1059A000BB2001F0C3FB002001F0C0FB992001F0F7
:1059B000BDFB002001F0BAFB772001F0B7FB00200F
:1059C00001F0B4FB442001F0B1FB002001F0AEFB7C
:1059D000562001F0ABFB002001F0A8FB232001F0D2
:1059E000A5FB002001F0A2FB332001F09FFB00206B
:1059F00001F09CFB452001F099FB002001F096FB93
:105A0000E82001F09FFB002001F090FB002001F056
:105A10008DFB992001F08AFB002001F087FB872095
:105A200001F084FB002001F081FB882001F07EFB67
:105A3000002001F07BFB772001F078FB002001F0D3
:105A400075FB662001F072FB002001F06FFB8820DF
:105A500001F06CFB002001F069FBAA2001F066FB5D
:105A6000002001F063FBBB2001F060FB002001F08F
:105A70005DFB992001F05AFB002001F057FB6620E6
:105A800001F054FB002001F051FB552001F04EFBCA
:105A9000002001F04BFB552001F048FB002001F0F5
:105AA00045FB442001F042FB002001F03FFB442075
:105AB00001F03CFB002001F039FB552001F036FBE2
:105AC000002001F033FBE92001F03CFBAA2001F0AB
:105AD0002DFB002001F02AFB002001F027FB002015
